:020000040000FA
:100000000C94E2020C940A030C940A030C940A0365
:100010000C940A030C940A030C940A030C940A032C
:100020000C940A030C940A030C940A030C940A031C
:100030000C940A030C940A030C940A030C940A030C
:100040000C9441120C940A030C94B1120C948B1270
:100050000C940A030C940A030C940A030C940A03EC
:100060000C94E3120C940A0300000000003E5B4F66
:100070005B3E3E6B4F6B3E1C3E7C3E1C183C7E3C08
:10008000181C577D571C1C5E7F5E1C00183C180016
:10009000FFE7C3E7FF0018241800FFE7DBE7FF30A6
:1000A000483A060E2629792926407F050507407F14
:1000B00005253F5A3CE73C5A7F3E1C1C08081C1C87
:1000C0003E7F14227F22145F5F005F5F06097F017D
:1000D0007F006689956A606060606094A2FFA29468
:1000E00008047E040810207E201008082A1C080836
:1000F0001C2A08081E101010100C1E0C1E0C303884
:100100003E3830060E3E0E06000000000000005F84
:1001100000000007000700147F147F14242A7F2AA0
:100120001223130864623649562050000807030062
:10013000001C2241000041221C002A1C7F1C2A08AE
:10014000083E080800807030000808080808000011
:1001500060600020100804023E5149453E00427F85
:10016000400072494949462141494D331814127FD4
:100170001027454545393C4A494931412111090774
:100180003649494936464949291E000014000000F5
:1001900040340000000814224114141414140041C7
:1001A00022140802015909063E415D594E7C121184
:1001B000127C7F494949363E414141227F414141BC
:1001C0003E7F494949417F090909013E4141517337
:1001D0007F0808087F00417F41002040413F017FA8
:1001E000081422417F404040407F021C027F7F0470
:1001F00008107F3E4141413E7F090909063E4151B9
:10020000215E7F09192946264949493203017F01A8
:10021000033F4040403F1F2040201F3F4038403FA9
:10022000631408146303047804036159494D4300BF
:100230007F4141410204081020004141417F0402F6
:10024000010204404040404000030708002054548D
:1002500078407F284444383844444428384444286B
:100260007F385454541800087E090218A4A49C78BE
:100270007F0804047800447D40002040403D007F1A
:100280001028440000417F40007C047804787C08FA
:100290000404783844444438FC18242418182424CE
:1002A00018FC7C08040408485454542404043F44B3
:1002B000243C4040207C1C2040201C3C4030403CE2
:1002C00044281028444C9090907C4464544C440042
:1002D00008364100000077000000413608000201A6
:1002E0000204023C2623263C1EA1A161123A404092
:1002F000207A38545455592155557941225454780F
:1003000042215554784020545579400C1E527212A7
:100310003955555559395454545939555454580030
:1003200000457C410002457D420001457C407D1234
:1003300011127DF0282528F07C5455450020545496
:100340007C547C0A097F4932494949323A44444441
:100350003A324A4848303A4141217A3A424020787C
:10036000009DA0A07D3D4242423D3D4040403D3C7D
:1003700024FF2424487E4943662B2FFC2F2BFF09A2
:1003800029F620C0887E0903205454794100004496
:100390007D413048484A32384040227A007A0A0A81
:1003A000727D0D19317D2629292F282629292926F4
:1003B00030484D4020380808080808080808382F39
:1003C00010C8ACBA2F102834FA00007B00000814C3
:1003D0002A142222142A14085500550055AA55AA99
:1003E00055AAFF55FF55FF000000FF00101010FF39
:1003F00000141414FF001010FF00FF1010F010F094
:10040000141414FC001414F700FF0000FF00FF1484
:1004100014F404FC141417101F10101F101F1414D0
:10042000141F00101010F0000000001F101010101A
:100430001F10101010F010000000FF10101010100E
:1004400010101010FF10000000FF140000FF00FF4C
:1004500000001F10170000FC04F4141417101714E8
:1004600014F404F40000FF00F7141414141414140A
:10047000F700F7141414171410101F101F1414147D
:10048000F4141010F010F000001F101F0000001FE7
:1004900014000000FC140000F010F01010FF10FF1A
:1004A000141414FF141010101F00000000F010FFAF
:1004B000FFFFFFFFF0F0F0F0F0FFFFFF0000000093
:1004C00000FFFF0F0F0F0F0F3844443844FC4A4A17
:1004D0004A347E02020606027E027E0263554941CC
:1004E000633844443C04407E201E2006027E020203
:1004F00099A5E7A5991C2A492A1C4C7201724C3017
:100500004A4D4D303048784830BC625A463D3E49ED
:100510004949007E0101017E2A2A2A2A2A44445F91
:10052000444440514A444040444A51400000FF0185
:1005300003E080FF000008086B6B08361236243693
:10054000060F090F060000181800000010100030F8
:1005500040FF0101001F01011E00191D1712003C80
:100560003C3C3C000000000000000000240027008C
:100570002A0000000000250028002B0000000000D9
:1005800023002600290004040404040404040202D5
:100590000202020203030303030301020408102002
:1005A000408001020408102001020408102000000D
:1005B0000008000201000003040700000000000022
:1005C0000000021411241FBECFEFD8E0DEBFCDBF64
:1005D00015E0A0E0B1E0E2E4F8E302C005900D927E
:1005E000AC3FB107D9F727E0ACEFB5E001C01D92F1
:1005F000A03AB207E1F712E0C2EED2E004C02197C0
:10060000FE010E94141CC13ED107C9F70E94681464
:100610000C941F1C0C94000028E030E040E8E091AE
:100620009607F0919707508190919D07909595239B
:100630009083E0919407F091950790919C07582F33
:10064000542389F05081952B9083E0919607F09187
:100650009707908150919D07952B90834695215047
:100660003109E9F60895508190959523EDCF8330B7
:1006700081F028F4813099F08230A9F00895873014
:10068000A9F08830C9F08430B1F4809180008F7D6A
:1006900003C0809180008F7780938000089584B597
:1006A0008F7784BD089584B58F7DFBCF8091B00096
:1006B0008F778093B00008958091B0008F7DF9CF3F
:1006C000CF93DF93282F30E0F901E255FA4F849160
:1006D000F901E656FA4FD491F901EA57FA4FC4915D
:1006E000CC23A1F081110E943703EC2FF0E0EE0F34
:1006F000FF1FE458FA4FA591B491EC91ED2381E0EE
:1007000090E009F480E0DF91CF91089580E090E0DF
:10071000FACF1F93CF93DF93282F30E0F901E255F2
:10072000FA4F8491F901E656FA4FD491F901EA574C
:10073000FA4FC491CC23A9F0162F81110E943703E0
:10074000EC2FF0E0EE0FFF1FEE58FA4FA591B49199
:100750008FB7F894EC91111108C0D095DE23DC938B
:100760008FBFDF91CF911F910895DE2BF8CFCF93EC
:10077000DF9390E0FC01E656FA4F24918A579A4F96
:10078000FC0184918823D1F090E0880F991FFC012F
:10079000E859FA4FA591B491FC01EE58FA4FC59172
:1007A000D49161110EC09FB7F8948C91E22FE0951F
:1007B0008E238C932881E223E8839FBFDF91CF9122
:1007C00008958FB7F894EC91E22BEC938FBFF6CF9E
:1007D0008E50806480937C0080917A008064809346
:1007E0007A0080917A0086FDFCCF8091780090910C
:1007F000790008953FB7F89480917406909175063A
:10080000A0917606B091770626B5A89B05C02F3F2C
:1008100019F00196A11DB11D3FBFBA2FA92F982F26
:100820008827BC01CD01620F711D811D911D42E021
:10083000660F771F881F991F4A95D1F708958F92E9
:100840009F92AF92BF92CF92DF92EF92FF924B01B5
:100850005C010E94FA036B017C010E94FA036C198F
:100860007D098E099F09683E734081059105A8F3B3
:1008700021E0821A9108A108B10888EEC80E83E031
:10088000D81EE11CF11C81149104A104B10429F7C4
:10089000FF90EF90DF90CF90BF90AF909F908F90A0
:1008A000089508950895AF92BF92CF92DF92EF928C
:1008B000FF920F931F93CF93DF936C017B018B010A
:1008C000040F151FEB015E01AE18BF08C017D1075A
:1008D00059F06991D601ED91FC910190F081E02DE4
:1008E000C6010995892B79F7C501DF91CF911F9139
:1008F0000F91FF90EF90DF90CF90BF90AF90089551
:10090000FC01538D448D252F30E0842F90E0821B15
:10091000930B541710F0CF96089501970895FC019A
:10092000918D828D981761F0A28DAE0FBF2FB11DF2
:100930005D968C91928D9F5F9F73928F90E008954A
:100940008FEF9FEF0895FC01918D828D981731F004
:10095000828DE80FF11D858D90E008958FEF9FEF58
:100960000895FC01918D228D892F90E0805C9F4F2E
:10097000821B91098F739927089588EC96E00E9455
:10098000B10421E0892B09F420E0822F089580E052
:1009900090E0892B29F00E94BD0481110C94000085
:1009A0000895FC01A48DA80FB92FB11DA35ABF4F04
:1009B0002C91848D90E001968F739927848FA6895E
:1009C000B7892C93A089B1898C91837080648C93B2
:1009D000938D848D981306C00288F389E02D808161
:1009E0008F7D80830895EF92FF920F931F93CF9393
:1009F000DF93EC0181E0888F9B8D8C8D98131AC05A
:100A0000E889F989808185FF15C09FB7F894EE8940
:100A1000FF896083E889F98980818370806480839D
:100A20009FBF81E090E0DF91CF911F910F91FF90E8
:100A3000EF900895F62E0B8D10E00F5F1F4F0F7390
:100A40001127E02E8C8D8E110CC00FB607FCFACF4B
:100A5000E889F989808185FFF5CFCE010E94D10414
:100A6000F1CFEB8DEC0FFD2FF11DE35AFF4FF0821C
:100A70009FB7F8940B8FEA89FB8980818062CFCF82
:100A8000CF93DF93EC01888D8823B9F0AA89BB89C5
:100A9000E889F9898C9185FD03C0808186FD0DC0B0
:100AA0000FB607FCF7CF8C9185FFF2CF808185FFD1
:100AB000EDCFCE010E94D104E9CFDF91CF9108950F
:100AC0000F931F93CF93DF93EC018E89823009F44B
:100AD00053C0833009F4ACC0813009F05CC0EC81B4
:100AE000FD81E41BF50BAF01421B530B77FD3FC0AB
:100AF0008E819F8168177907D4F557FF04C0240FB2
:100B0000351F50E040E08C819D81FA01E20FF31F18
:100B10008E179F071CF49C01241B350B121613061D
:100B200034F5FB0177FD3796A3E0F595E795AA9597
:100B3000E1F7F695FE2FEE27F795E795E40FF51F01
:100B4000EE5FFE4F6770772781E090E001C0880F6D
:100B50006A95EAF7482F0130110509F472C008F4CC
:100B60007CC02E0F3F1F0230110509F483C0DF91B6
:100B7000CF911F910F910895AC81BD81CD01861B4E
:100B8000970BBC0161507109EE81FF81E41BF50BED
:100B9000AF01421B530B77FDEACF8C819D81681713
:100BA00079072CF757FF04C0240F351F50E040E0B1
:100BB0008E819F81FA01E20FF31F8E179F071CF4AD
:100BC0009C01241B350B121613068CF6922FA42FB2
:100BD000A695A695A69580E8A89FD0011124A60FFA
:100BE000B71FAE5FBE4F477009F457C058E0541BA3
:100BF000452F652F70E0FB01E65FFA4F80812517D6
:100C000008F0B0C0621B71092FEF30E002C03595CB
:100C100027956A95E2F7822301301105A9F108F4BE
:100C200064C00230110509F0A2CF2C9182272EC09A
:100C3000AE81BF81CD01861B970BBC01615071094C
:100C400055CF2E0F3F1FE217F30709F490CF819184
:100C5000DF011197842B8C93F6CF80952E0F3F1FC9
:100C6000E217F30709F483CF9191DF0111979823DD
:100C70009C93F6CFE217F30709F479CF8191DF0156
:100C8000119784278C93F6CF2C91822B8C939417F9
:100C900008F46DCF941BA058BF4F983008F447C09C
:100CA0000230110531F5FD01892F20812095208327
:100CB000E058FF4F88508830C0F728EF290F26955D
:100CC0002695269530E02F5F3F4F3695322F22270D
:100CD00037952795A20FB31F977009F448CFE92FD6
:100CE000F0E0EE5FFA4F808132C080952C91822334
:100CF000CDCF81E00130110509F080E08195FD0143
:100D0000292F8083E058FF4F28502830D0F728EF54
:100D1000290F26952695269530E02F5F3F4F369573
:100D2000322F222737952795A20FB31F977099234B
:100D300009F41DCFE92FF0E0EE5FFA4F808101301A
:100D4000110541F058F00230110509F010CF9C91C7
:100D5000892702C09C91892B8C9309CF80959C9107
:100D60008923FACF0130110509F48ECF08F4BDCFE5
:100D70000230110509F459CF8DCF0F931F93CF93F4
:100D8000DF93EC018E89823009F45EC0833009F470
:100D9000B5C0813009F067C0AC81BD81CD01841B35
:100DA000950BAC014150510957FD49C08C819D8183
:100DB000481759070CF043C077FF04C0260F371FB0
:100DC00070E060E08E819F81FB01E20FF31F8E17C0
:100DD0009F071CF49C01261B370B121613067CF58B
:100DE000922FA62FA695A695A69580E8A89FD0013C
:100DF0001124A40FB51FAE5FBE4F677009F48FC0FA
:100E000048E0461B642F70E0FB01E65FFA4F8081EB
:100E1000241708F002C1621B71092FEF30E002C0F5
:100E2000359527956A95E2F782230130110509F47B
:100E30006DC008F49CC00230110509F4F8C0DF91C0
:100E4000CF911F910F910895EC81FD81E61BF70B67
:100E5000AE81BF81CD01841B950BAC01415051097E
:100E6000BF01621B730B57FDEACF8E819F8148172C
:100E700059072CF777FF04C0260F371F70E060E09A
:100E80008C819D81FB01E20FF31F8E179F071CF4DD
:100E90009C01261B370B121613068CF6FA0157FD20
:100EA000379693E0F595E7959A95E1F7F695FE2F3D
:100EB000EE27F795E795E60FF71FEE5FFE4F4770B9
:100EC000552781E090E001C0880F4A95EAF7482F46
:100ED0000130110509F488C008F492C02E0F3F1F9D
:100EE0000230110509F0ABCFE217F30709F4A7CFE1
:100EF0008191DF01119784278C93F6CFEE81FF81DA
:100F0000E61BF70BBF01621B730B4ECF2C91822B9C
:100F10008C93941708F493CF941BA058BF4F98302C
:100F200008F447C00230110531F5FD01892F2081F9
:100F300020952083E058FF4F88508830C0F728EF75
:100F4000290F26952695269530E02F5F3F4F369541
:100F5000322F222737952795A20FB31F977009F4D8
:100F60006ECFE92FF0E0EE5FFA4F808132C08095BE
:100F70002C918223CDCF81E00130110509F080E072
:100F80008195FD01292F8083E058FF4F285028309C
:100F9000D0F728EF290F26952695269530E02F5F6C
:100FA0003F4F3695322F222737952795A20FB31F33
:100FB0009770992309F443CFE92FF0E0EE5FFA4FE1
:100FC00080810130110541F058F00230110509F01F
:100FD00036CF9C91892702C09C91892B8C932FCF6F
:100FE00080959C918923FACF2E0F3F1FE217F307BC
:100FF00009F425CF8191DF011197842B8C93F6CFD3
:1010000080952E0F3F1F2E173F0709F418CF91919F
:10101000DF01119798239C93F6CF0130110509F455
:1010200075CF08F4A4CF0230110509F075CF2C91CB
:1010300082276ECFDC0177FD67C018968D919C9159
:101040001997681779070CF05FC057FD5DC01A96B5
:101050008D919C911B97481759070CF055C05696D7
:101060008C9156978230B9F0833041F1813049F448
:1010700014968D919C91841B950BAB01BC01615022
:1010800071092130310521F108F43FC022303105CA
:1010900009F458C008951496ED91FC911597E61B3C
:1010A000F70BBF016150710916968D919C91FC015F
:1010B000E41BF50BAF0141505109E3CF16968D911A
:1010C0009C91861B970BBA01AC0141505109D9CFB5
:1010D000FA0157FD3796A3E0F595E795AA95E1F754
:1010E000F695FE2FEE27F795E795E60FF71FEE5FD3
:1010F000FE4F4770552721E030E001C0220F4A958E
:10110000EAF78081822B80830895FA0157FD379694
:1011100023E0F595E7952A95E1F7F695FE2FEE2762
:10112000F795E795E60FF71FEE5FFE4F47705527DF
:1011300081E090E001C0880F4A95EAF780959081A0
:101140008923E1CFFA0157FD379683E0F595E795BE
:101150008A95E1F7F695FE2FEE27F795E795E60FCE
:10116000F71FEE5FFE4F4770552721E030E001C0CA
:10117000220F4A95EAF780818227C5CF0895FC01A6
:101180006370668B8481958126813781613039F067
:10119000633029F0918780873387228708953187CC
:1011A00020879387828708952F923F924F925F9274
:1011B0006F927F928F929F92AF92BF92CF92DF9267
:1011C000EF92FF920F931F93CF93DF93CDB7DEB7CC
:1011D0006A970FB6F894DEBF0FBECDBF9A8F898F86
:1011E0007A8369834A01D22E18870F833701BC2C7A
:1011F000DC0159962D913C915A972115310509F042
:1012000015C118968D919C911997681779070CF064
:10121000D7C11A968D919C91481759070CF0D0C1EF
:101220004C2C512CB6E0CB9E600D711D11247C8797
:101230006B87161617060CF0C3C1EA2DF0E0FA878B
:10124000E98793E0EE0FFF1F9A95E1F7F88BEF87A0
:10125000CF01840F951F181619060CF0B1C1A98D86
:10126000BA8D58968C91811104C0BFEABD1508F45F
:10127000D394A98DBA8DED91FC9111970284F385D9
:10128000E02DCD010995B5E0DB9EC0011124E98177
:10129000FA81FC83EB83312C212C9C0128593F4F90
:1012A000388F2F8B4A2D50E05E8B4D8BEF89F88D58
:1012B000E20DF31D44919E828D82D12CC12C698157
:1012C0007A81620D731D7A8B698B842F90E09C8BE1
:1012D0008B8BE98DFA8DA081B18140FF82C0F1E056
:1012E000BF126FC0AF126DC01C96ED91FC912F81A3
:1012F0003885A4014C0D5D1D69897A89898D9A8D87
:101300000995EB89FC89F595E7954E2F5FEFC51A96
:10131000D50A6D817E818D899E89680F791F7E83B4
:101320006D8398E0C916D10481F6AFEF2A1A3A0A04
:10133000EB81FC81E40DF51DFC83EB83F5E02F16BA
:10134000310409F0B3CF2F81388526153705B9F060
:10135000A98DBA8DED91FC91B1E0BB1257C0AB12D3
:1013600055C069817A816B5F7F4F0088F189E02DDC
:10137000830128E030E0A401898D9A8D0995A98D1B
:10138000BA8DED91FC9111970688F789E02DCD017A
:101390006A960FB6F894DEBF0FBECDBFDF91CF9136
:1013A0001F910F91FF90EF90DF90CF90BF90AF9083
:1013B0009F908F907F906F905F904F903F902F9075
:1013C00009941E96ED91FC91EF80F88409851A85A9
:1013D00092014D815E816B817C81898D9A8D099509
:1013E00090CF2F8138852615370509F48ACF31E053
:1013F000B31207C0A31205C01C96ED91FC91930196
:1014000078CF1E96ED91FC917301E0CF6B857C85C2
:10141000641975090684F785E02D73010F85188915
:101420009201A401898D9A8D0995A9CFF90134966D
:101430009491329745915491D91AB7E0DB9E400DB3
:10144000511D1124F901259134913C8B2B8BFA010C
:1014500025903490FA013296749031963491398BFC
:10146000329664903196449041E04C1518F04A153C
:1014700008F07FC0662D062C000C770B7C836B83F5
:10148000842D042C000C990B9E838D83A98DBA8D1D
:10149000ED91FC9111970284F385E02DCD01099522
:1014A000512CD12CC12CEA2DF0E0FA87E9872B2DA5
:1014B00030E03C872B87A401440D511D47FC5A9511
:1014C000588F4F8B69817A81660D711D67FC7A9503
:1014D0007E876D877989C71608F051CF2C2D30E0B3
:1014E0004D815E81420F531FA985BA854A9FC00175
:1014F0004B9F900D5A9F900D1124FC01E80DF91D92
:10150000F88BEF87852D612C4F89588D420F531F23
:101510005E8B4D8B671408F050C044244394480EF2
:10152000877041F4C1010196EB89FC89E20DF31D3E
:10153000D4901C01D7FE19C0A98DBA8DED91FC91F4
:10154000662D70E0B1E0BB1219C0AB1217C02D853B
:101550003E85620F731F0484F585E02D2F81388549
:101560004D895E89898D9A8D0995DD0C6394842D52
:10157000D1CF1E821D821C821B8288CF4B815C8151
:10158000640F751FAB85BC856A9FC0016B9F900D72
:101590007A9F900D112469817A81680F791F0684E2
:1015A000F785E02DEF80F88409851A859D014F8528
:1015B0005889898D9A8D0995D8CF570CC3948ACFB5
:1015C0006A960FB6F894DEBF0FBECDBFDF91CF9104
:1015D0001F910F91FF90EF90DF90CF90BF90AF9051
:1015E0009F908F907F906F905F904F903F902F9043
:1015F00008958F929F92AF92CF92EF92FF920F93A6
:101600001F93CF93DF93EC01262F898D9A8D00973E
:1016100009F051C06A30D1F41D861C868D8948E0DE
:10162000849F900111248E859F85820F931F9F8731
:101630008E8781E090E0DF91CF911F910F91FF9015
:10164000EF90CF90AF909F908F9008956D3089F379
:10165000CC88AD888F898823C1F08C859D8536E044
:10166000C39E800D911D112448855985481759073F
:1016700064F44E855F851D861C8638E0A39EC001FC
:101680001124840F951F9F878E87EA88FB8808891D
:1016900019894E855F856C857D85CE010E94D408B1
:1016A0002C898C859D8546E0249F800D911D1124F9
:1016B0009D878C87BECF6A3069F41D861C86FC012D
:1016C0003896E4912D898E859F85E29F800D911D2E
:1016D0001124ADCF6D3009F4ACCFFC0134963491B8
:1016E000631708F4A6CF3296E491E61708F4A1CF69
:1016F000FC01329685909490462F431B342F47E08F
:10170000349F800C911C1124F4013296349131964F
:10171000E4913323A9F1EE2399F1CC88F4013596B5
:10172000E491AD884F89442301F10E2E000CFF0B8C
:10173000E30FF11DCE9EA001CF9E500D11246C85AC
:101740007D85460F571F68857985641775076CF48A
:101750004E855F851D861C86FC013896E491AE9E01
:10176000400D511D11245F874E87EA88FB88088948
:1017700019894E855F856C857D85CE010E94D408D0
:10178000F4013496E4912C898C859D85E29F800D2F
:10179000911D11248DCF6F927F928F929F92AF9265
:1017A000BF92CF92DF92EF92FF920F931F93CF934E
:1017B000DF93EC016B015A0139014801E881F9819D
:1017C0000284F385E02D0995E881F9810288F38987
:1017D000E02D87019301A501B601CE010995A50170
:1017E000480D591D41505109E881F9810288F3895A
:1017F000E02D9301B601CE010995E881F9810088B9
:10180000F189E02D9401A501B601CE010995C60C20
:10181000D71CB60161507109E881F9810088F1890E
:10182000E02D9401A501CE010995E881F981068892
:10183000F789E02DCE01DF91CF911F910F91FF909D
:10184000EF90DF90CF90BF90AF909F908F907F9060
:101850006F9009946F927F928F929F92AF92BF92F6
:10186000CF92DF92EF92FF920F931F93CF93DF936C
:101870005C01EB016A01490138018701DC01ED914E
:10188000FC916217730719F5641675062CF0962DF6
:10189000872D3A01C92ED82E9601261937092F5FB8
:1018A0003F4F048CF58DE02DA301BE01C5010995C4
:1018B000DF91CF911F910F91FF90EF90DF90CF902C
:1018C000BF90AF909F908F907F906F900895461536
:1018D000570591F42617370724F0892D4B01C22FA5
:1018E000D82F9E01281939092F5F3F4F068CF78D9D
:1018F000E02DA601B401DACF0284F385E02D09952D
:10190000D501ED91FC910488F589E02D83019401C6
:10191000A601BE01C5010995D501ED91FC9106888E
:10192000F789E02DC501DF91CF911F910F91FF90B5
:10193000EF90DF90CF90BF90AF909F908F907F906F
:101940006F900994EF92FF920F931F93DC011A9608
:101950000D911C911B9718962D913C911997ED9123
:10196000FC9100A0F1A1E02D7B0150E040E070E08F
:1019700060E009951F910F91FF90EF9008954F92AD
:101980005F926F927F928F929F92AF92BF92CF920F
:10199000DF92EF92FF920F931F93CF93DF936C012F
:1019A0002B015A0139014801DC01ED91FC910284BF
:1019B000F385E02D0995E201640C751CD601ED91CB
:1019C000FC91C615D7055CF40088F189E02D8701EC
:1019D0009401A501BE01C60109952196EFCF0688A5
:1019E000F789E02DC601DF91CF911F910F91FF90F4
:1019F000EF90DF90CF90BF90AF909F908F907F90AF
:101A00006F905F904F9009948F929F92AF92BF9288
:101A1000CF92DF92EF92FF920F931F93CF93DF93BA
:101A2000EC015B014A016901E881F9810284F385D7
:101A3000E02D099595012C0D3D1D21503109E881BE
:101A4000F9810488F589E02D78018401A401B501AC
:101A5000CE010995E881F9810688F789E02DCE014C
:101A6000DF91CF911F910F91FF90EF90DF90CF907A
:101A7000BF90AF909F908F9009948F929F92AF925A
:101A8000BF92CF92DF92EF92FF920F931F93CF936B
:101A9000DF93EC015B014A0169017801E881F9817A
:101AA0000284F385E02D0995C80CD91C86010150EC
:101AB0001109E881F9810488F589E02D9501A401D7
:101AC000B501CE010995E881F9810688F789E02DF5
:101AD000CE01DF91CF911F910F91FF90EF90DF909A
:101AE000CF90BF90AF909F908F9009940895EF9200
:101AF000FF920F931F93DC01ED91FC9100A0F1A1E7
:101B0000E02D09951F910F91FF90EF9008950F938D
:101B10001F93DC01ED91FC91068CF78DE02D09956A
:101B20001F910F9108950F931F93DC01ED91FC918C
:101B3000048CF58DE02D09951F910F910895DC011E
:101B4000ED91FC910084F185E02D09942F923F9254
:101B50004F925F926F927F928F929F92AF92BF92BD
:101B6000CF92DF92EF92FF920F931F93CF93DF9369
:101B700000D000D000D0CDB7DEB73C016A013E8373
:101B80002D83FC82EB825801A41AB50AB7FE03C06C
:101B9000B194A194B1088D809E80861A970A97FE11
:101BA00003C09194819491088A149B045CF0902F57
:101BB000812F0D811E819D838E839C2D8D2D6B0128
:101BC000692F782F0C151D055CF09D818E817E8319
:101BD0006D83692F782F902F812F8601C92ED82EE3
:101BE0001601201A310A2B012D813E81421A530A17
:101BF00057FE03C0519441945108710137FE03C050
:101C00003FEFE31AF30AF594E7948D819E818617DE
:101C100097075CF5A1E0B0E0BA83A983C016D106AE
:101C20004CF1D301ED91FC910484F585E02D2B81DD
:101C30003C81A8016D817E818A149B041CF04D813A
:101C40005E81B801C3010995E418F508F7FE0AC0E2
:101C50002D813E8189819A81280F391F3E832D83F2
:101C6000E20CF31C0F5F1F4FD9CF2FEF3FEF3A83EA
:101C70002983D4CF26960FB6F894DEBF0FBECDBF12
:101C8000DF91CF911F910F91FF90EF90DF90CF9058
:101C9000BF90AF909F908F907F906F905F904F908C
:101CA0003F902F900895089520913D06260F3327E9
:101CB000331F21323105ECF420919E06FC0190E0A7
:101CC00080E0243069F082E00895A0913D062191E2
:101CD000AC01435E594FA40FB52FB11D2C93019653
:101CE000861798F380913D06680F60933D0680E06B
:101CF000089581E0089510929E0681E080939D06EC
:101D00001092780661E082E10E94890361E083E13C
:101D10000E948903E9EBF0E080818E7F80838081DF
:101D20008D7F808388E48093B80085E48093BC0035
:101D30000895CF93DF9391E090931C068823B9F028
:101D4000C091B800D091BA008091BC008A7B80938A
:101D5000BC0060E082E10E94890360E083E10E94B0
:101D600089030E947B0ED093BA00C093B800DF9124
:101D7000CF910895CF92DF92EF92FF920F931F932E
:101D8000CF93DF93D091C70681E0D13208F09CC099
:101D9000C091C6060E94FA036B017C0180919E06E9
:101DA00081116CC082E080939E0681E080939D0645
:101DB0008FEF80939C0610929B06D0939A06A6EA1A
:101DC000B6E0EAE7F6E080E0D8138DC0109279061D
:101DD00080917906CC0FC82BC09379068091780644
:101DE000813009F084C0109278060E94FA036B01DA
:101DF0007C01809179068093BB008091A006909130
:101E0000A106A091A206B091A306892B8A2B8B2B49
:101E1000A1F00E94FA030091A0061091A106209162
:101E2000A2063091A3066C197D098E099F09061739
:101E300017072807390708F442C08091BC0083FDCA
:101E4000D8CF85EC8093BC000E94FA036B017C0123
:101E500080919E06823009F44CC080919C068F3F91
:101E600009F469C080919C06803209F466C08091B3
:101E70009C06803309F463C084E026C08091A006EC
:101E80009091A106A091A206B091A306892B8A2B5E
:101E90008B2B09F483CF0E94FA030091A0061091C6
:101EA000A1062091A2063091A3066C197D098E0926
:101EB0009F09061717072807390708F06FCF809189
:101EC0009F060E94990E85E01092A5061092C70603
:101ED0001092A406DF91CF911F910F91FF90EF9088
:101EE000DF90CF9008959D9191938F5F6DCF85EE98
:101EF000A9CF8091A0069091A106A091A206B091D1
:101F0000A306892B8A2B8B2B09F4A2CF0E94FA03FC
:101F10000091A0061091A1062091A2063091A3067F
:101F20006C197D098E099F090617170728073907BD
:101F300008F08ECFC4CF80E0C7CF82E0C5CF83E06A
:101F4000C3CFE091650680916406E81730F4F0E0B5
:101F5000E450FA4F808190E008958FEF9FEF08954D
:101F600090916506809164062FEF3FEF981748F433
:101F7000E92FF0E0E450FA4F208130E09F5F90932A
:101F80006506C90108958091640690916506891BD4
:101F9000990B0895CF92DF92EF92FF920F931F93C8
:101FA000CF93DF937C01CB018A012091A4062223E9
:101FB00089F0EB016B01C40ED51ECC15DD0569F06F
:101FC0006991D701ED91FC910190F081E02DC7015D
:101FD0000995F3CF642F0E94540EC801DF91CF9171
:101FE0001F910F91FF90EF90DF90CF900895CF93C6
:101FF000DF931F92CDB7DEB769832091A406222319
:10200000F9F02091C706203258F021E030E0FC01C1
:102010003383228390E080E00F90DF91CF91089589
:102020008091A506E82FF0E0EA55F94F9981908359
:102030008F5F8093A5068093C70681E090E0ECCF88
:1020400061E0CE0101960E94540EF7CFCF93C82FC6
:1020500080918E078F3FB1F1E0919807F091990739
:10206000808190919E07892B8083E0919A07F0915F
:102070009B07908180919F07809589238083E091C1
:102080009807F0919907908180919E078095892308
:10209000808380919307882389F0CEBD00000DB422
:1020A00007FEFDCF8EB5E0919807F09199078081EA
:1020B00090919E07892B8083CF9108958C2F0E9449
:1020C0000C03F1CF80918C0791E09093A40680934C
:1020D000C6061092A5061092C70660E085E697E056
:1020E0000E94F70F6C2F85E697E00E94F70FCF91C3
:1020F0000C94BA0E8F929F92AF92BF92CF92DF92C2
:10210000EF92FF920F931F93CF93DF9380E00E9493
:10211000261080E10E94261080E40E942610809103
:102120008E078F3F09F46BC030EBF32ED0E0C0E098
:102130008F2D0E94261082E00E94261080E10E94CE
:10214000261010E000E0CE018E5F9E4F6C01E09102
:102150009807F0919907808190919E07892B808341
:10216000E0919A07F0919B07808190919F07892BBE
:102170008083E0919807F0919907908180919E0764
:102180008095892380835601A00EB11E20E1E22EA6
:10219000F50181915F0190919307992369F18EBDBB
:1021A00000000DB407FEFDCF8EB5EA94E110F0CF2C
:1021B000E0919807F0919907808190919E07892B73
:1021C0008083005F1F4F0038110509F0C0CFC05851
:1021D000DF4FF394C115F4E0DF0709F0A9CFDF91D9
:1021E000CF911F910F91FF90EF90DF90CF90BF9014
:1021F000AF909F908F9008950E940C03D6CF90903F
:10220000B8008CE08093B80090EBF92ED0E0C0E0ED
:10221000882483948F2D0E94261082E00E9426102D
:1022200080E10E94261010E000E0CE018E5F9E4FFC
:102230005C0180918C078092A4068093C606109260
:10224000A5061092C70660E485E697E00E94F70FA6
:102250006501C00ED11E80E1E82EF60161916F018B
:1022600085E697E00E94F70FEA94E110F6CF0E940E
:10227000BA0E005F1F4F00381105D9F6C058DF4F66
:10228000F394C115F4E0DF0729F69092B800A7CFC8
:1022900090E080E00895E2E0F1E080E094E0DF018A
:1022A0009C011D9221503040E1F708950E941A1CB4
:1022B000FB0101900020E9F73197AF01461B570B56
:1022C000DC01ED91FC910280F381E02D09948F9265
:1022D0009F92AF92BF92EF92FF920F931F93CF9373
:1022E000DF93CDB7DEB7A1970FB6F894DEBF0FBE70
:1022F000CDBF7C01FA01CB0119A2223008F42AE0FB
:102300008E010F5D1F4F822E912CB12CA12CBF018D
:10231000A50194010E94191AF901CA016A300CF54D
:10232000605DD8016E938D01232B242B252B79F72B
:1023300090E080E0109721F0BD01C7010E94581184
:10234000A1960FB6F894DEBF0FBECDBFDF91CF913F
:102350001F910F91FF90EF90BF90AF909F908F9043
:102360000895695CDECFCF92DF92EF92FF920F93D8
:102370001F93CF93DF93EC016A017B01E881F98120
:102380000190F081E02D6DE209958C0144275527DD
:10239000BA014C195D096E097F092AE0CE010E943D
:1023A0006711800F911FDF91CF911F910F91FF90C7
:1023B000EF90DF90CF900895AB01770F660B770B0E
:1023C00077FD0C94B3112AE00C946711BC0181E7EE
:1023D00097E00C945811CF93DF93AC01990F660BE3
:1023E000770B77FF10C088EC96E00E94B311EC01E8
:1023F00062E675E088EC96E00E9458118C0F9D1FF4
:10240000DF91CF9108952AE088EC96E00E94671151
:10241000EECF85ED8093BC008091A0069091A1063F
:10242000A091A206B091A3060796A11DB11D23E0BD
:10243000B695A795979587952A95D1F72091BC00D9
:1024400024FD03C010929E0608954091A00650916D
:10245000A1066091A2067091A306452B462B472B3F
:1024600069F30097A105B10541F02AE22A95F1F739
:1024700000C00197A109B109E1CF80919F060C949A
:10248000990E1F920F920FB60F9211242F933F9324
:102490008F939F93AF93BF93809170069091710635
:1024A000A0917206B091730630916F0623E0230F5E
:1024B0002D3758F50196A11DB11D20936F0680930D
:1024C000700690937106A0937206B0937306809184
:1024D000740690917506A0917606B09177060196E4
:1024E000A11DB11D8093740690937506A093760686
:1024F000B0937706BF91AF919F918F913F912F91AC
:102500000F900FBE0F901F90189526E8230F02968C
:10251000A11DB11DD2CF1F920F920FB60F921124A1
:102520002F933F934F935F936F937F938F939F93DB
:10253000AF93BF93EF93FF9388EC96E00E94D10492
:10254000FF91EF91BF91AF919F918F917F916F918B
:102550005F914F913F912F910F900FBE0F901F9061
:1025600018951F920F920FB60F9211242F938F93ED
:102570009F93EF93FF93E091D806F091D906808165
:10258000E091DE06F091DF0682FD1BC09081809114
:10259000E1068F5F8F732091E206821741F0E09190
:1025A000E106F0E0E853F94F958F8093E106FF9143
:1025B000EF919F918F912F910F900FBE0F901F90D1
:1025C00018958081F4CF1F920F920FB60F921124AD
:1025D0002F933F934F935F936F937F938F939F932B
:1025E000AF93BF93EF93FF938091B900887F8036BC
:1025F00009F44AC0F0F5883209F4A7C018F5803113
:1026000009F49BC0B8F4882309F4F9C0883009F4B0
:1026100094C0FF91EF91BF91AF919F918F917F9166
:102620006F915F914F913F912F910F900FBE0F903F
:102630001F901895883109F488C0803251F7809333
:102640009C0614C0803409F49DC040F48033B9F373
:102650008833F9F680939C0685ECB0C0803509F488
:1026600085C0883509F496C0883499F60E9409120D
:10267000D0CF883909F48CC038F5883729F050F468
:10268000883611F0803729F683E080939E061092F9
:102690005F0657C0883809F47BC0803919F080384C
:1026A00009F0B7CF80915F06803208F071C0E091E9
:1026B0005F0681E08E0F80935F068091BB00F0E0A3
:1026C000E15CF94F80833DC0803B39F0E0F4803A13
:1026D00009F479C0883A09F09CCF84E080939E0683
:1026E00010923E0610923D06E0916206F09163065C
:1026F000099580913D0681110FC081E080933D06D0
:1027000010921D0609C0803C09F4A6CF883C09F44C
:10271000A3CF883B09F07DCFE0913E0681E08E0F8C
:1027200080933E06F0E0E35EF94F80818093BB002A
:1027300090913E0680913D0629C080917906809354
:10274000BB0085EC8093BC0064CF90919B06809188
:102750009A06981758F5E0919B0681E08E0F8093BA
:102760009B06F0E0E658F94F8081E9CFE0919B06A7
:1027700081E08E0F80939B068091BB00F0E0E658CD
:10278000F94F808390919B0680919A069817C8F222
:1027900085E8D8CFE0919B0681E08E0F80939B0661
:1027A0008091BB00F0E0E658F94F808380919D0650
:1027B00081115CCF81E08093780684EA8093BC002D
:1027C00010929E0626CF85EC8093BC0010929E0648
:1027D00080915F06803230F4E0915F06F0E0E15CCA
:1027E000F94F108260915F0670E0E0916006F09111
:1027F00061068FE396E0099510925F060ACF10926A
:102800009C0634CFE8ECF6E01382128288EE93E067
:10281000A0E0B0E084839583A683B78326E135E00A
:102820003183208325EC30E03587248724EC30E0A9
:102830003787268720EC30E0318B208B21EC30E08D
:10284000338B228B22EC30E0358B248B26EC30E06E
:10285000378B268B118E128E138E148EE5E6F7E0E1
:102860001382128284839583A683B78388E295E0DE
:1028700091838083E1E7F7E01382128220E830E061
:102880003583248380E490E0978386833187208793
:1028900093878287168A158614861786168681E0A6
:1028A000858B848B2FEF3FEF338B228B318B208BEB
:1028B000878B108E128E118E8AE395E09183808330
:1028C0008FEF858F81A3878F868F84E080A3089503
:1028D000CF93DF93CDB7DEB729970FB6F894DEBF5D
:1028E0000FBECDBF789484B5826084BD84B581600D
:1028F00084BD85B5826085BD85B5816085BD8091CB
:102900006E00816080936E00109281008091810042
:10291000826080938100809181008160809381003A
:10292000809180008160809380008091B1008460FC
:102930008093B1008091B00081608093B00080915D
:102940007A00846080937A0080917A00826080931C
:102950007A0080917A00816080937A0080917A0079
:10296000806880937A001092C10061E088E00E9444
:10297000B70361E083E00E94B70361E085E00E9455
:10298000B70361E086E00E94B70361E087E00E9440
:10299000B70360E084E00E94B70360E082E00E9439
:1029A000B70361E089E00E94B703E091D806F09197
:1029B000D90692E09083E091D406F091D50610827A
:1029C000E091D606F091D7068FEC80831092E00656
:1029D000E091DC06F091DD0686E08083E091DA0686
:1029E000F091DB06808180618083E091DA06F091CE
:1029F000DB06808188608083E091DA06F091DB0657
:102A0000808180688083E091DA06F091DB06808126
:102A10008F7D808390938D078CE380938C078091CA
:102A20008E078F3F09F4CBC361E0809190070E942D
:102A3000B70361E0809192070E94B70380919207EB
:102A4000082E000C990BFC01EA57FA4FE491F0E0D4
:102A5000EE0FFF1FEE58FA4F2591349130939907EE
:102A600020939807FC01E656FA4FE491E0939E0705
:102A700080919007082E000C990BFC01EA57FA4F41
:102A8000E491F0E0EE0FFF1FEE58FA4F25913491DC
:102A900030939B0720939A07FC01E656FA4FE49186
:102AA000E0939F078091930781113EC061E0809180
:102AB0008E070E94B70361E080918F070E94B703E1
:102AC00080918F07082E000C990BFC01EA57FA4FF2
:102AD000E491F0E0EE0FFF1FEE58FA4F259134918C
:102AE0003093970720939607FC01E656FA4FE4913E
:102AF000E0939D0780918E07082E000C990BFC0136
:102B0000EA57FA4FE491F0E0EE0FFF1FEE58FA4F4C
:102B1000259134913093950720939407FC01E65654
:102B2000FA4FE491E0939C0780919307882309F47E
:102B300039C01FB7F89480916606811127C0E0E97B
:102B4000F5E08491E4EAF5E09491E82FF0E0EE0FEF
:102B5000FF1FE859FA4FA591B491EC91E92321F4B4
:102B600061E08AE00E94890361E08AE00E94B70385
:102B70008CB580618CBD8CB580648CBD61E08DE0CE
:102B80000E94B70361E08BE00E94B7038091660664
:102B90008F5F809366061FBF8CB58C7F8CBD8DB513
:102BA00081608DBD61E0809191070E94B70361E073
:102BB000809191070E94890361E070E080E090E0DD
:102BC0000E941F0460E0809191070E9489036AE0DF
:102BD00070E080E090E00E941F0461E08091910726
:102BE0000E9489038EEA0E94261085ED0E9426101D
:102BF00080E80E94261088EA0E9426108FE30E9437
:102C0000261083ED0E94261080E00E94261080E4AA
:102C10000E9426108DE80E94261084E10E94261052
:102C200080E20E94261080E00E94261081EA0E9425
:102C3000261088EC0E9426108AED0E94261082E160
:102C40000E94261081E80E9426108FEC0E94261018
:102C500089ED0E94261081EF0E9426108BED0E94C4
:102C6000261080E40E94261084EA0E94261086EA3C
:102C70000E9426108FEA0E94261060ED77E080E027
:102C800090E00E941F040E944B1182E00E946003AA
:102C900011E0019709F010E089E00E946003892BA0
:102CA00009F0A4C2112309F4A1C261E089E00E94E5
:102CB000890364EF71E080E090E00E941F040E94AD
:102CC0004B1119821A821B821C821D8268EC70E0F3
:102CD00080E090E00E941F0461E084E00E94B7035E
:102CE00060E084E00E94890362E170E080E090E0AF
:102CF0000E941F0461E084E00E9489038BE990E058
:102D00000197F1F760E084E00E94890360E084E0CD
:102D10000E94B70301E117E284E00E946003892B5F
:102D200019F401501109C1F701E315E784E00E948D
:102D30006003019719F401501109C1F758E2E52E1B
:102D4000F12C67E0762E612CCC24C394D12C00E1C9
:102D500017E284E00E946003892B19F401501109E5
:102D6000C0F70E94FA034B015C0184E00E946003FB
:102D7000019729F4C8010197012B09F045C20E946F
:102D8000FA03681979098A099B096333710581057A
:102D9000910578F0E1E0F0E0EC0FFD1FE60DF11D8C
:102DA00080819601072C01C0220F0A94EAF7822B3A
:102DB000808371102BC2639447E0742E81E0E81A7F
:102DC000F10809F0C4CF898190E090936C0680935C
:102DD0006B068B8190E090936E0680936D0681E088
:102DE00090E0909384078093830790938207809369
:102DF000810710927E0710927D0710928007109233
:102E00007F0711E0109385071093860785E695E00C
:102E10000E94E61160916D0670916E0681E797E061
:102E20000E94DC1110927E0710927D078AE090E0EC
:102E30009093800780937F0786E795E00E94E611D4
:102E400060916B0670916C0681E797E00E94DC113F
:102E50008AEF95E00E94E61110927E0710927D079E
:102E600084E190E09093800780937F0787E895E066
:102E70000E94E61180E10E94E803BC01990F880BD3
:102E8000990B0E94ED1A6B017C014B015C018EE0F5
:102E90000E94E8039C01990F440B550B265B3109F6
:102EA00041095109ACE9BFEF0E94141A21E131E058
:102EB00040E050E00E94E719DA01C9018C599F4FA8
:102EC000AF4FBF4F8E839F83A887B9872E803F80E7
:102ED0001093850710938607B10181E797E00E9460
:102EE000DC118AEF95E00E94E61110927E071092A5
:102EF0007D078EE190E09093800780937F07A70184
:102F00009601C701B6010E940F1C64E975E08111AA
:102F10001BC026013701E89477F82FEF3FEF4FE70A
:102F20005FE7C301B2010E940F1C811171C12FEF35
:102F30003FEF4FE75FE7C301B2010E94B71A1816CF
:102F40000CF066C168E975E081E797E00E945811CE
:102F50009FE0291631040CF0DBC160E087E00E949D
:102F6000890310927E0710927D0788E290E090938B
:102F7000800780937F0781E0809385078093860791
:102F800060EA75E081E797E00E94581162E675E01B
:102F900081E797E00E94581161E083E00E94890375
:102FA00061E086E00E94890364E670E080E090E0E2
:102FB0000E941F0460E083E00E94890360E086E0D5
:102FC0000E94890361E088E00E9489032FB7F8948A
:102FD0008091700690917106A0917206B09173066F
:102FE0002FBF409167065091680660916906709105
:102FF0006A06841B950BA60BB70B81369A4EA1056A
:10300000B10508F459C06E818091000190910101D1
:103010000E94D91980910001909101010E94D1195B
:10302000482F50E070E060E02AE088EC96E00E94D3
:10303000671162E675E088EC96E00E9458114091B5
:103040006706509168066091690670916A062AE0E9
:1030500088EC96E00E94671162E675E088EC96E0E5
:103060000E94581180910001909101010E94EB1182
:103070008E819F810E94EB1180910001909101014E
:1030800001968D3791050CF065C1909301018093F5
:1030900000012FB7F8948091700690917106A0916D
:1030A0007206B09173062FBF8093670690936806EF
:1030B000A0936906B0936A0624E2A22EB12C34E1F3
:1030C000832E912C89E00E946003019709F054C17E
:1030D0000E944B1110927E0710927D07109280077C
:1030E00010927F0789ED95E00E94E61110927E070D
:1030F00010927D0786E390E09093800780937F078E
:1031000089EF95E00E94E61110927E0710927D07EC
:10311000B0928007A0927F0783EF95E00E94E611AE
:1031200010927E0710927D079092800780927F0711
:1031300087EF95E00E94E61199E1C92ED12CC601D6
:103140000E94D119A82FB0E024ED3FEF4FEF5FEFC1
:103150000E94061A24E630E040E050E00E94E719A1
:1031600089019A01005C1F4F2F4F3F4F0431110519
:1031700014F400E410E0D0927E07C0927D07A0E432
:10318000B0E0B0938007A0937F07EE24E394F12C86
:10319000960140E450E0B60181E797E00E942A0CD6
:1031A0000E947A1082E00E946003019709F0D5C066
:1031B00060E089E00E9489030E944B1183CF109246
:1031C0006506109264061092A5061092C7060E942A
:1031D0007B0E81E594E0909363068093620682E51E
:1031E00094E09093610680936006DCCC89E00E94B5
:1031F0006003019709F063CD112309F460CD60E00D
:1032000089E00E9489035BCD8C01AFCD7A94D6CD45
:103210002FEF3FEF4FE75FE4C701B6010E949D1B10
:1032200018161CF46CE975E08FCE2FEF3FEF4FE7D7
:103230005FECC701B6010E94B71A87FDF3CF20E00B
:1032400030E0A901C701B6010E94B71A87FF0BC081
:103250006DE281E797E00E94F90A46015701B7FA4B
:10326000B094B7F8B0942AE037ED43EA5BE3C501C8
:10327000B4010E944B1A4B015C010E94BC1A6B0105
:103280007C010E94EB1A9B01AC01C501B4010E94B4
:103290004A1A4B015C012AE0B701A60181E797E0D9
:1032A0000E9467116EE281E797E00E94F90A20E030
:1032B00030E040E251E4C501B4010E94A21B4B0181
:1032C0005C010E94BC1A6B01F12CE12C2AE0B701D1
:1032D000A60181E797E00E946711C701B6010E942D
:1032E000EB1A9B01AC01C501B4010E944A1A20E00F
:1032F00030E040E251E40E94A21B0E94BC1AAB01E4
:1033000070E060E02AE081E797E00E94671120CE3C
:10331000AFE02A16310409F459CE60E086E00E943D
:10332000890310927E0710927D0788E290E09093C7
:10333000800780937F0781E08093850780938607CD
:103340008CEB95E00E94E61161E087E00E94890322
:1033500060E039CE89E190E098CE62E370E080E0F1
:1033600090E00E941F04BFEFCB1ADB0A2CE7C216C5
:10337000D10409F0E4CEA6CE0E947A1064EF71E089
:1033800080E090E00E941F0480E090E0892B09F427
:103390007CCC0E94BD04882309F477CC0E940000F5
:1033A00074CCF999FECF92BD81BDF89A992780B56A
:1033B0000895262FF999FECF1FBA92BD81BD20BD79
:1033C0000FB6F894FA9AF99A0FBE01960895052E51
:1033D00097FB1EF400940E94FE1957FD07D00E942F
:1033E000191A07FC03D04EF40C94FE195095409521
:1033F000309521953F4F4F4F5F4F089590958095A1
:10340000709561957F4F8F4F9F4F08950E943B1A93
:10341000A59F900DB49F900DA49F800D911D112428
:103420000895B7FF0C94061A0E94061A821B930B8C
:103430000895A1E21A2EAA1BBB1BFD010DC0AA1FF5
:10344000BB1FEE1FFF1FA217B307E407F50720F00D
:10345000A21BB30BE40BF50B661F771F881F991F88
:103460001A9469F760957095809590959B01AC01D1
:10347000BD01CF010895A29FB001B39FC001A39FDA
:10348000700D811D1124911DB29F700D811D11249D
:10349000911D08955058BB27AA270E94621A0C94C8
:1034A000631B0E94551B38F00E945C1B20F039F40E
:1034B0009F3F19F426F40C94521B0EF4E095E7FBA1
:1034C0000C944C1BE92F0E94741B58F3BA17620727
:1034D00073078407950720F079F4A6F50C94961BE2
:1034E0000EF4E0950B2EBA2FA02D0B01B90190011F
:1034F0000C01CA01A0011124FF27591B99F0593F63
:1035000050F4503E68F11A16F040A22F232F342FAA
:103510004427585FF3CF469537952795A795F040F8
:103520005395C9F77EF41F16BA0B620B730B840B0D
:10353000BAF09150A1F0FF0FBB1F661F771F881FC5
:10354000C2F70EC0BA0F621F731F841F48F487951D
:1035500077956795B795F7959E3F08F0B0CF93950F
:10356000880F08F09927EE0F9795879508950E9488
:10357000281B08F481E008950E947C1B88F09F5767
:1035800098F0B92F9927B751B0F0E1F0660F771F87
:10359000881F991F1AF0BA95C9F714C0B13091F07D
:1035A0000E94961BB1E008950C94961B672F782F0C
:1035B0008827B85F39F0B93FCCF386957795679542
:1035C000B395D9F73EF490958095709561957F4FAE
:1035D0008F4F9F4F0895E89409C097FB3EF4909554
:1035E0008095709561957F4F8F4F9F4F9923A9F0DC
:1035F000F92F96E9BB279395F6958795779567956B
:10360000B795F111F8CFFAF4BB0F11F460FF1BC0AE
:103610006F5F7F4F8F4F9F4F16C0882311F096E941
:1036200011C0772321F09EE8872F762F05C06623EF
:1036300071F096E8862F70E060E02AF09A95660FA8
:10364000771F881FDAF7880F9695879597F9089561
:10365000990F0008550FAA0BE0E8FEEF16161706A3
:10366000E807F907C0F012161306E407F50798F00B
:10367000621B730B840B950B39F40A2661F0232B24
:10368000242B252B21F408950A2609F4A140A695A0
:103690008FEF811D811D089597F99F6780E870E085
:1036A00060E008959FEF80EC089500240A941616B8
:1036B000170618060906089500240A941216130620
:1036C000140605060895092E0394000C11F48823AE
:1036D00052F0BB0F40F4BF2B11F460FF04C06F5FCA
:1036E0007F4F8F4F9F4F089557FD9058440F551FA0
:1036F00059F05F3F71F04795880F97FB991F61F074
:103700009F3F79F087950895121613061406551FEA
:10371000F2CF4695F1DF08C0161617061806991F56
:10372000F1CF86957105610508940895E894BB274B
:1037300066277727CB0197F908950E94281B08F484
:103740008FEF08950E94B51B0C94631B0E94551BBC
:1037500038F00E945C1B20F0952311F00C944C1B58
:103760000C94521B11240C94971B0E94741B70F331
:10377000959FC1F3950F50E0551F629FF001729F16
:10378000BB27F00DB11D639FAA27F00DB11DAA1F25
:10379000649F6627B00DA11D661F829F2227B00D72
:1037A000A11D621F739FB00DA11D621F839FA00DFD
:1037B000611D221F749F3327A00D611D231F849F4D
:1037C000600D211D822F762F6A2F11249F575040A4
:1037D0009AF0F1F088234AF0EE0FFF1FBB1F661F1F
:1037E000771F881F91505040A9F79E3F510580F0E8
:1037F0000C944C1B0C94971B5F3FE4F3983ED4F35E
:10380000869577956795B795F795E7959F5FC1F78B
:10381000FE2B880F911D9695879597F908950E9424
:10382000281B880B990B0895EE0FFF1F0590F4914C
:10383000E02D099481E090E0F8940C941F1CF8941A
:10384000FFCF190000000000000000000000000091
:103850000000000000000000000000000000000068
:103860000000000000000000000000000000000058
:103870000000000000000000000000000000000048
:1038800000000080808000000000000000000000B8
:1038900000000000008080C0C000000000000000A8
:1038A0000000000000000000000000000000000018
:1038B0000000000000000000000000000000000008
:1038C00000000000000000000000000000000000F8
:1038D000000000000000000080C0E0F0F8FCF8E00C
:1038E00000000000000000000000000000000000D8
:1038F00000808080808000808000000000808080C8
:10390000808000FFFFFF00000000808080800000BA
:103910008080000080FFFF808000808000808080A9
:10392000800080800000000000808000008C8E8479
:10393000000080F8F8F8800000000000000000009F
:1039400000000000F0F0F0F0F0F0F0F0F0F0F0F037
:10395000E0E0C08000E0FCFEFFFFFF7FFFFFFFFF15
:10396000FF0000000000000000000000000000FE5A
:10397000FFC70101010183FFFF00007CFEC70101B9
:10398000010183FFFFFF0038FEC78301010183C7E8
:10399000FFFF000001FFFF010100FFFF0701010120
:1039A00000007FFF80000000FFFF7F0000FFFFFF9F
:1039B000000001FFFFFF0100000000000000000008
:1039C00000000000030F3F7F7FFFFFFFFFFFFFFFAF
:1039D000E7C7C78F8F9FBFFFFFC3C0F0FFFFFFFF89
:1039E000FFFCFCFCFCFCFCFCFCF8F8F0F0E0C00088
:1039F00001030303030301030300000000010303A9
:103A0000030301010301000000010303030301019B
:103A10000303000000030300000003030000000094
:103A20000000000103030303030100000001030180
:103A3000000000030301000000000000000000007F
:103A40000000000000000080C0E0F0F9FFFFFFFF71
:103A5000FF3F1F0F87C7F7FFFF1F1F3DFCF8F8F858
:103A6000F87C7DFFFFFFFFFFFFFFFF7F3F0F070099
:103A700030300000000000000000000000000000E6
:103A80000000000000000000FEFEFC00000000003E
:103A90000000000000000000000000000000000026
:103AA00000E0C00000000000000000000000303016
:103AB0000000000000000000000000000000000006
:103AC0000000000000C0FEFFFFFFFFFFFFFFFFFF41
:103AD0007F7F3F1F0F071F7FFFFFF8F8FFFFFFFFEC
:103AE000FFFEF8E000000001000000000000000000
:103AF000FEFE000000FCFEFC0C06060EFCF80000BA
:103B0000F0F81C0E0606060CFFFFFF0000FEFE008C
:103B1000000000FCFEFC00183C7E66E6CE8400003F
:103B200006FFFF0606FCFEFC0C0606060000FEFE75
:103B30000000C0F8FC4E4646464E7C7840183C7665
:103B4000E6CECC8000000000000000000000000075
:103B5000000000000000000001070F1F1F3F3F3F53
:103B60003F1F0F03000000000000000000000000E5
:103B70000F0F0000000F0F0F000000000F0F0000DC
:103B800003070E0C18180C060F0F0F0000010F0E84
:103B90000C180C0F070100040E0C180C0F07000086
:103BA000000F0F00000F0F0F0000000000000F0FAC
:103BB00000000007070C0C181C0C060600040E0C75
:103BC000180C0F07000000000000000000000000BB
:103BD00000000000000000000000000000000000E5
:103BE00000000000000000000000000000000000D5
:103BF00000000000000000000000000000000000C5
:103C000000000000000000000000000000000000B4
:103C100000000000000000000000000000000000A4
:103C20000000000000000000000000000000000094
:103C30000000000000000000000000000000000084
:103C400000000000000103070F1F3F7F0080C0E05D
:103C5000F0F8FCFE00000000F3045304800440056B
:103C6000B1048F04A30400000000F70FCA0F48112D
:103C7000760DC30FB00FA10F00000000F90A530426
:103C80004811530E1A08760D9F0D770D930D870D71
:103C9000A60D760DBF08BE086005BD06BF0CA20CC0
:103CA0002A0CCB0B0D0A0054656D702E206F746FBB
:103CB000637A656E69613A0057696C672E20706F90
:103CC00077696574727A613A0057696C672E20676C
:103CD0006C6562793A006E616E00696E66006F769F
:103CE00066005A61206E69736B612077696C676F3B
:103CF000746E6F736320676C656279212100576968
:103D00006C676F746E6F736320676C656279207780
:103D1000206E6F726D6965203A290057796B726564
:103D2000732077696C676F746E6F73636920676C5B
:0E3D30006562793A00353025003130302500CB
:107E0000112484B714BE81FFF0D085E080938100F7
:107E100082E08093C00088E18093C10086E0809377
:107E2000C20080E18093C4008EE0C9D0259A86E02C
:107E300020E33CEF91E0309385002093840096BBD3
:107E4000B09BFECF1D9AA8958150A9F7CC24DD24C4
:107E500088248394B5E0AB2EA1E19A2EF3E0BF2EE7
:107E6000A2D0813461F49FD0082FAFD0023811F036
:107E7000013811F484E001C083E08DD089C08234E0
:107E800011F484E103C0853419F485E0A6D080C0E4
:107E9000853579F488D0E82EFF2485D0082F10E0AE
:107EA000102F00270E291F29000F111F8ED06801E7
:107EB0006FC0863521F484E090D080E0DECF843638
:107EC00009F040C070D06FD0082F6DD080E0C81688
:107ED00080E7D80618F4F601B7BEE895C0E0D1E017
:107EE00062D089930C17E1F7F0E0CF16F0E7DF06D8
:107EF00018F0F601B7BEE89568D007B600FCFDCFD4
:107F0000A601A0E0B1E02C9130E011968C91119780
:107F100090E0982F8827822B932B1296FA010C0160
:107F200087BEE89511244E5F5F4FF1E0A038BF0790
:107F300051F7F601A7BEE89507B600FCFDCF97BE46
:107F4000E89526C08437B1F42ED02DD0F82E2BD052
:107F50003CD0F601EF2C8F010F5F1F4F84911BD097
:107F6000EA94F801C1F70894C11CD11CFA94CF0C13
:107F7000D11C0EC0853739F428D08EE10CD085E9AC
:107F80000AD08FE07ACF813511F488E018D01DD067
:107F900080E101D065CF982F8091C00085FFFCCF94
:107FA0009093C60008958091C00087FFFCCF809118
:107FB000C00084FD01C0A8958091C6000895E0E648
:107FC000F0E098E1908380830895EDDF803219F02E
:107FD00088E0F5DFFFCF84E1DECF1F93182FE3DFCA
:107FE0001150E9F7F2DF1F91089580E0E8DFEE27F6
:047FF000FF270994CA
:027FFE00040479
:00000001FF
